:020000040800F2
:10000000600600200D020008150200081702000813
:10001000190200081B0200081D0200080000000071
:100020000000000000000000000000001F020008A7
:100030002102000800000000230200082502000839
:1000400027020008270200082702000827020008EC
:1000500027020008270200082702000827020008DC
:1000600027020008270200082702000827020008CC
:1000700027020008270200082702000827020008BC
:1000800027020008270200082702000827020008AC
:10009000270200082702000827020008270200089C
:1000A000270200082702000827020008270200088C
:1000B000270200082702000827020008270200087C
:1000C000270200082702000827020008270200086C
:1000D000270200082702000827020008270200085C
:1000E000270200082702000827020008270200084C
:1000F000270200082702000827020008270200083C
:10010000270200082702000827020008270200082B
:10011000270200082702000827020008270200081B
:10012000270200082702000827020008270200080B
:1001300027020008270200082702000827020008FB
:1001400027020008270200082702000827020008EB
:1001500027020008270200082702000827020008DB
:1001600027020008270200082702000827020008CB
:1001700027020008270200082702000800000000EC
:10018000270200082702000800F002F800F02EF80D
:100190000AA090E8000C82448344AAF10107DA45E2
:1001A00001D100F023F8AFF2090EBAE80F0013F006
:1001B000010F18BFFB1A43F001031847C4020000E7
:1001C000D40200000023002400250026103A28BF96
:1001D00078C1FBD8520728BF30C148BF0B607047B9
:1001E0001FB500F047F91FBD10B510BD00F031F884
:1001F0001146FFF7F5FF00F0FDF800F04FF803B4EB
:10020000FFF7F2FF03BC00F057F8000009488047F1
:1002100009480047FEE7FEE7FEE7FEE7FEE7FEE7E8
:10022000FEE7FEE7FEE7FEE704480549054A064B00
:100230007047000091030008890100086000002059
:1002400060060020600200206002002070477047B6
:100250007047754600F02CF8AE46050069465346D7
:1002600020F00700854618B020B5FFF7DDFFBDE898
:1002700020404FF000064FF000074FF000084FF00D
:10028000000B21F00701AC46ACE8C009ACE8C0099E
:10029000ACE8C009ACE8C0098D46704710B504460B
:1002A000AFF300802046BDE81040FFF7A8BF000074
:1002B000004870470000002001491820ABBEFEE74F
:1002C000260002007047F0B50A46002100230024F2
:1002D00000BF3DE0012505FA01F3156805EA0304B6
:1002E0009C4234D105684F000326BE40B5430560EB
:1002F00015794E00B5400668354305601579012D26
:1003000002D01579022D16D185684F000326BE4014
:10031000B543856055794E00B540866835438560A4
:10032000456801268E40B5434560456896798E4004
:10033000B6B235434560C5684F000326BE40B5439D
:10034000C560D5794E00B540C6683543C560491CC7
:100350001029BFD3F0BD0246002013690B400BB13A
:10036000012000E0002070474183704701837047FF
:1003700029B1064A12680243044B1A6004E0034A9A
:1003800012688243014B1A60704700003038024007
:100390001448006840F47000124908601248006870
:1003A00040F001001049086000200F490831086042
:1003B0000D4800680D4908400B4908600C48091DAC
:1003C0000860081F006820F48020091F08600020D2
:1003D00005490C3108604FF000600249803908601F
:1003E0007047000088ED00E000380240FFFFF6FE95
:1003F000103000241FB501210820FFF7B9FF4FF48A
:100400007040029001208DF80C0000208DF80D0046
:100410008DF80E008DF80F0002A91448FFF753FF66
:1004200001210846FFF7A4FF0120009000208DF86D
:1004300004008DF805008DF806008DF80700694668
:100440000B48FFF740FF10E001210948FFF783FF49
:10045000012805D14FF4C0410448FFF787FF04E0AD
:100460004FF4C0410148FFF77FFFEDE7000C024069
:10047000000002404FF04070E1EE100A70470000AB
:10048000900400080000002060060000C40100087D
:040000050800020DE0
:00000001FF
