:020000040800F2
:1000000068060020290200083102000833020008B7
:10001000350200083702000839020008000000001D
:100020000000000000000000000000003B0200088B
:100030003D020008000000003F02000841020008E5
:10004000430200084302000843020008430200087C
:10005000430200084302000843020008430200086C
:10006000430200084302000843020008430200085C
:10007000430200084302000843020008430200084C
:10008000430200084302000843020008430200083C
:10009000430200084302000843020008430200082C
:1000A000430200084302000843020008430200081C
:1000B000430200084302000843020008430200080C
:1000C00043020008430200084302000843020008FC
:1000D00043020008430200084302000843020008EC
:1000E00043020008430200084302000843020008DC
:1000F00043020008430200084302000843020008CC
:1001000043020008430200084302000843020008BB
:1001100043020008430200084302000843020008AB
:10012000430200084302000843020008430200089B
:10013000430200084302000843020008430200088B
:10014000430200084302000843020008430200087B
:10015000430200084302000843020008430200086B
:10016000430200084302000843020008430200085B
:100170004302000843020008430200080000000098
:10018000430200084302000800F002F800F03CF8C7
:100190000AA090E8000C82448344AAF10107DA45E2
:1001A00001D100F031F8AFF2090EBAE80F0013F0F8
:1001B000010F18BFFB1A43F001031847D8020000D3
:1001C000F8020000103A24BF78C878C1FAD8520764
:1001D00024BF30C830C144BF04680C6070470000C1
:1001E0000023002400250026103A28BF78C1FBD840
:1001F000520728BF30C148BF0B6070471FB500F0E1
:1002000043F91FBD10B510BD00F031F81146FFF7DE
:10021000F5FF00F0F5F800F04FF803B4FFF7F2FF38
:1002200003BC00F057F80000094880470948004720
:10023000FEE7FEE7FEE7FEE7FEE7FEE7FEE7FEE796
:10024000FEE7FEE704480549054A064B70470000F3
:100250009D0300088901000868000020680600204E
:10026000680200206802002070477047704775469A
:1002700000F02CF8AE4605006946534620F0070012
:10028000854618B020B5FFF7DDFFBDE820404FF0F0
:1002900000064FF000074FF000084FF0000B21F070
:1002A0000701AC46ACE8C009ACE8C009ACE8C0093D
:1002B000ACE8C0098D46704710B50446AFF3008026
:1002C0002046BDE81040FFF7A8BF00000048704777
:1002D0000400002001491820ABBEFEE72600020002
:1002E0007047F0B50A4600210023002400BF3DE01E
:1002F000012505FA01F3156805EA03049C4234D18F
:1003000005684F000326BE40B543056015794E00D1
:10031000B5400668354305601579012D02D0157981
:10032000022D16D185684F000326BE40B543856077
:1003300055794E00B540866835438560456801268D
:100340008E40B5434560456896798E40B6B23543D8
:100350004560C5684F000326BE40B543C560D579EA
:100360004E00B540C6683543C560491C1029BFD34F
:10037000F0BD4183704701837047000029B1064AF0
:1003800012680243044B1A6004E0034A1268824375
:10039000014B1A6070470000303802401448006872
:1003A00040F47000124908601248006840F00100F3
:1003B0001049086000200F49083108600D480068A6
:1003C0000D4908400B4908600C48091D0860081FCA
:1003D000006820F48020091F0860002005490C31C6
:1003E00008604FF0006002498039086070470000E3
:1003F00088ED00E000380240FFFFF6FE10300024D8
:100400001CB501210820FFF7B9FF4FF470400090A0
:1004100001208DF8040000208DF805008DF80600FD
:100420008DF8070069461548FFF75BFF25E04FF49C
:1004300070411248FFF79FFF00201149086004E057
:100440000F480068401C0E4908600D4800680D49BF
:100450008842F5D34FF470410848FFF78AFF002027
:100460000749086004E006480068401C0449086029
:100470000348006803498842F5D3D8E7000C0240DE
:100480000000002040420F004FF04070E1EE100AE3
:1004900070470000B40400080000002004000000C1
:1004A000C4010008B804000804000020640600002D
:0804B000E0010008000000005B
:0400000508000229C4
:00000001FF
