:020000040800F2
:10000000600600200D020008150200081702000813
:10001000190200081B0200081D0200080000000071
:100020000000000000000000000000001F020008A7
:100030002102000800000000230200082502000839
:1000400027020008270200082702000827020008EC
:1000500027020008270200082702000827020008DC
:1000600027020008270200082702000827020008CC
:1000700027020008270200082702000827020008BC
:1000800027020008270200082702000827020008AC
:10009000270200082702000827020008270200089C
:1000A000270200082702000827020008270200088C
:1000B000270200082702000827020008270200087C
:1000C000270200082702000827020008270200086C
:1000D000270200082702000827020008270200085C
:1000E000270200082702000827020008270200084C
:1000F000270200082702000827020008270200083C
:10010000270200082702000827020008270200082B
:10011000270200082702000827020008270200081B
:10012000270200082702000827020008270200080B
:1001300027020008270200082702000827020008FB
:1001400027020008270200082702000827020008EB
:1001500027020008270200082702000827020008DB
:1001600027020008270200082702000827020008CB
:1001700027020008270200082702000800000000EC
:10018000270200082702000800F002F800F02EF80D
:100190000AA090E8000C82448344AAF10107DA45E2
:1001A00001D100F023F8AFF2090EBAE80F0013F006
:1001B000010F18BFFB1A43F0010318473402000077
:1001C000440200000023002400250026103A28BF26
:1001D00078C1FBD8520728BF30C148BF0B607047B9
:1001E0001FB500F0FFF81FBD10B510BD00F031F8CD
:1001F0001146FFF7F5FF00F0C9F800F04FF803B41F
:10020000FFF7F2FF03BC00F057F8000009488047F1
:1002100009480047FEE7FEE7FEE7FEE7FEE7FEE7E8
:10022000FEE7FEE7FEE7FEE704480549054A064B00
:1002300070470000290300088901000860000020C1
:1002400060060020600200206002002070477047B6
:100250007047754600F02CF8AE46050069465346D7
:1002600020F00700854618B020B5FFF7DDFFBDE898
:1002700020404FF000064FF000074FF000084FF00D
:10028000000B21F00701AC46ACE8C009ACE8C0099E
:10029000ACE8C009ACE8C0098D46704710B504460B
:1002A000AFF300802046BDE81040FFF7A8BF000074
:1002B000004870470000002001491820ABBEFEE74F
:1002C00026000200704700001548006840F0080052
:1002D000134908601348006840F0804011490860E5
:1002E000081D006820F40040091D0860081D006812
:1002F00040F08040091D08600A48006840F08060B6
:1003000008490860081D006820F40050091D0860B5
:10031000081D006840F08060091D086070470000FB
:1003200030380240000C02401448006840F470006D
:10033000124908601248006840F001001049086046
:1003400000200F49083108600D4800680D49084039
:100350000B4908600C48091D0860081F006820F45C
:100360008020091F0860002005490C3108604FF00B
:1003700000600249803908607047000088ED00E0A5
:1003800000380240FFFFF6FE10300024FFF79CFF0C
:1003900022E01248006840F4004010490860002242
:1003A00000E0521C0E488242FBD30C48006840F02B
:1003B00000400A4908600846006840F400500860A0
:1003C000002200E0521C06488242FBD3034800682A
:1003D00040F0005001490860DBE70000180C0240C3
:1003E00080841E004FF04070E1EE100A704700005C
:1003F000000400080000002060060000C40100089E
:040000050800020DE0
:00000001FF
